:020000040800F2
:10000000B80F0020C55000087D0600087F060008D4
:1000100083060008870600088B0600080000000021
:100020000000000000000000000000008F06000833
:1000300091060008000000009306000895060008DD
:10004000DF500008DF500008DF500008DF500008D4
:10005000DF500008DF500008DF500008DF500008C4
:10006000DF500008DF500008DF500008DF500008B4
:10007000DF500008DF500008DF500008DF500008A4
:10008000DF500008DF500008DF5000082F33000861
:10009000033D0008DF500008DF500008DF50000873
:1000A000DF500008DF500008DF500008DF50000874
:1000B000DF50000845460008DF500008DF50000808
:1000C000DF500008DF500008DF500008DF50000854
:1000D000DF5000085F500008FD0C0008750900089B
:1000E000DF500008DF500008DF500008DF50000834
:1000F000DF500008DF500008DF500008DF50000824
:10010000DF500008DF500008DF500008DF50000813
:10011000DF500008DF500008DF500008DF50000803
:10012000DF500008DF500008DF500008DF500008F3
:10013000DF500008DF500008DF500008DF500008E3
:10014000DF500008DF500008DF500008DF500008D3
:10015000DF500008DF500008DF500008DF500008C3
:10016000DF500008DF500008DF500008DF500008B3
:10017000DF500008DF500008DF500008DF500008A3
:10018000DF500008DF50000800F002F800F0B2F87D
:100190000AA090E8000C82448344AAF10107DA45E2
:1001A00001D100F0A7F8AFF2090EBAE80F0013F082
:1001B000010F18BFFB1A43F00103184728A60000DF
:1001C00048A600000A444FF0000C10F8013B13F061
:1001D000070408BF10F8014B1D1108BF10F8015BA0
:1001E000641E05D010F8016B641E01F8016BF9D193
:1001F00013F0080F1EBF10F8014BAD1C0C1B09D1EA
:100200006D1E58BF01F801CBFAD505E014F8016B5B
:1002100001F8016B6D1EF9D59142D6D370470000ED
:100220000023002400250026103A28BF78C1FBD8FF
:10023000520728BF30C148BF0B6070476E2907F0D6
:10024000D185702908F0338166290AF0CE816529AD
:100250000AF0CB8167290AF0C8816129AFF30080D9
:1002600003681B0A28BF41F08001692907F07E85D9
:10027000642907F07B85752907F078856F2908F0D8
:10028000C180782908F0FF80E92908F05B80E42923
:1002900008F05880F52908F05580EF2908F0BE8055
:1002A000F82908F0FE800368DB0928BF41F08001CF
:1002B000632908F0F781732908F0FC81E32908F02D
:1002C0000782F32908F00C82002070471FB50AF05E
:1002D00082F908F0F7F804000020002109F0EAFB99
:1002E000401C60600020002109F0CEFBE0601FBDD3
:1002F00010B510BD08F08EFA1146FFF7E7FF00F0C9
:1003000009F808F0B5FA03B4FFF7F2FF03BC04F0F4
:1003100047FE00002DED068B84B042F2107004F011
:10032000B1FD4FF4A06004F0EDFE02F07DFF04F09B
:1003300001FB00F047FE04F0A9F9A82004F040FDFD
:100340004FF4E13004F039FE4FF4FA7004F09AFDF6
:100350000021084602F0F9FF4FF4FA7004F092FD14
:100360000A231A460121002003F034FCC82004F0BF
:1003700041FD05220021084603F031F84FF4E13039
:1003800000F00BFC42F2CF01312004F02EF951E1D4
:10039000642004F077FDA84800680AF0ABF841EC4F
:1003A000180BA64800680AF0A5F841EC190BA44800
:1003B00000680AF09FF841EC1A0B8DED028B8DED71
:1003C000009B53EC1A2B9FA007F03EFB04F03BFB75
:1003D0009F4840787328DAD19D48C178102088431F
:1003E00058B39C4801781020884330BB9A48006875
:1003F0000AF080F841EC190B9FED980B53EC102B91
:1004000009F0ACFB41EC180B09F076FB924908604F
:10041000944800780C2802D10B209249087091482A
:100420000078072802D108208E4908708D4800788E
:10043000172802D10E208B4908708548C1782020EA
:10044000884358B3834801782020884330BB8648CE
:1004500000680AF04FF841EC190B9FED800B53EC4C
:10046000102B09F07BFB41EC180B09F045FB7E4992
:1004700008607C4800780C2802D10B20794908706C
:1004800078480078072802D1082076490870754816
:100490000078172802D10E20724908706C48C17884
:1004A0004020884358B36B4801784020884330BBD4
:1004B000694800680AF01EF841EC190B9FED670BC4
:1004C00053EC102B09F02CFF41EC180B09F014FB36
:1004D00061490860634800780C2802D10B2061490B
:1004E000087060480078072802D108205D4908702C
:1004F0005C480078172802D10E205A4908705448E9
:10050000C1788020884358B35248017880208843BE
:1005100030BB5548006809F0EDFF41EC190B9FED29
:100520004F0B53EC102B09F0FBFE41EC180B09F0BC
:10053000E3FA4D4908604B4800780C2802D10B20A3
:100540004849087047480078072802D108204549E3
:10055000087044480078172802D10E2041490870DD
:100560003B4801790420884358B34048017804206F
:10057000884330BB3E48006809F0BCFF41EC190BD2
:100580009FED3C0B53EC102B09F0CAFE41EC180B0D
:1005900009F0B2FA36490860324800780C2802D1D6
:1005A0000B20304908702F480078072802D1082016
:1005B0002C4908702B480078172802D10E202949B1
:1005C0000870234801790820884358B327480178E8
:1005D0000820884330BB2648006809F08BFF41ECB7
:1005E000190B9FED240B53EC102B09F0B7FA41ECDB
:1005F000180B09F081FA1E4908601A4800780C2887
:1006000002D10B201749087016480078072802D13C
:1006100008201449087013480078172802D10E20CA
:10062000104908700A48C0780A49087008480079DB
:100630000E490870ACE60000640000205C00002059
:100640005800002025662025662025660D0A00003A
:100650000C090020140000200C0000200000000005
:100660000000344006000020080000201500002093
:10067000100000200000000000000040704700BF94
:10068000FEE700BFFEE700BFFEE700BFFEE77047E2
:1006900070477047704700000CB500200190009033
:1006A0007648006840F480307449086000BF7348A1
:1006B000006800F4003000900198401C0190009800
:1006C00018B90198B0F5A04FF1D16C48006800F45A
:1006D000003010B10120009001E00020009000984F
:1006E000012846D165484030006840F08050634999
:1006F000403108606248006840F44040604908604A
:100700005E48083000685D490831086008460068A6
:1007100040F4004008600846006840F4A0500860BB
:100720005848091F0860081F006840F08070091FC2
:10073000086000BF5148006800F000700028F9D040
:1007400040F20570504908604C480830006820F0BD
:1007500003004A49083108600846006840F002007A
:10076000086000BF45480830006800F00C00082809
:10077000F8D10CBD10B54548006840F470004349FD
:1007800008603E48006840F001003C4908600020D5
:100790003A4908310860394800683D4908403749FE
:1007A00008603C48091D0860081F006820F480208C
:1007B000091F0860002031490C310860FFF76CFF09
:1007C0004FF0006031498039086010BD70B50020DD
:1007D0000022022300240221284D08352D6805F04F
:1007E0000C0020B1042806D0082834D107E02A4D97
:1007F0002A4E356033E02A4D284E35602FE01F4DDC
:100800002D1D2D68C5F380541C4D2D1D2D6805F040
:100810003F0154B1224DB5FBF1F5184E361D366837
:10082000C6F3881605FB06F209E01B4DB5FBF1F592
:10083000124E361D3668C6F3881605FB06F20F4DBC
:100840002D1D2D68C5F301456D1C6B00B2FBF3F542
:10085000124E356003E0104D104E356000BF00BFF2
:10086000064D08352D68C5F303150E4E705D0B4D12
:100870002D68C540094E356070BD0000003802404B
:100880000070004008544007003C024088ED00E042
:10089000FFFFF6FE103000240024F40024000020A6
:1008A00000127A002800002010B52DED068BB0EE66
:1008B000408AF0EE608AB0EE419AF0EE619A53EC15
:1008C000192B51EC180B09F0E9FC2AD253EC192B27
:1008D00051EC180B09F024FD41EC1A0B9FEDED0BC8
:1008E00053EC102B09F0DAFC12D29FEDEC0B53EC19
:1008F000102B51EC190B09F031F941EC1A0B53ECA8
:10090000182B09F00DFD41EC100BBDEC068B10BD52
:1009100053EC192B51EC180B09F0F6FC41EC100BC1
:10092000F3E753EC192B51EC180B09F0EDFC41ECFB
:100930001A0B9FEDD80B53EC102B09F0AFFC10D223
:1009400053EC192B51EC180B09F0DEFC41EC1A0B9F
:100950009FEDD20B53EC102B09F0E2FC41EC100B95
:10096000D3E753EC192B51EC180B09F0CDFC41ECFB
:10097000100BCAE710B52DED048BCA48006808B902
:10098000012000E00020C749086040F22551C64818
:1009900005F080FA00287DD040F22551C24805F0CC
:1009A000B4FAC14805F0B4F9C0490870C0480078ED
:1009B000052870D2DFE800F00311263D4B00BB484C
:1009C00000780D2805D1BA480078401CB849087055
:1009D00002E00020B6490870A6E0B44800780A2872
:1009E00008D1B3480078401CB14908700020B149D3
:1009F000087006E0AD4800780D2802D00020AC4910
:100A0000087091E0A9480078AB49AA4A1278885446
:100A1000A8480078401CA7490870084600781828A4
:100A200006DB00200870A2480078401CA04908702E
:100A30007AE09E4800780A2805D19D480078401C3D
:100A40009B49087002E00020994908706CE09748C3
:100A500000780D2860D1984890ED000A974880ED05
:100A6000000A954890ED010A954880ED000A9248E9
:100A700090ED020A934880ED000A8F4890ED030A3A
:100A8000914880ED000A914890ED000A8E48D0ED23
:100A9000000A01E049E043E030EE600A10EE101A6F
:100AA000084609F027FD41EC190B9FED890B53EC2B
:100AB000102B09F007F941EC180B09F01DF88649D5
:100AC0000860814890ED000A804880ED000A7A486D
:100AD00090ED040A814880ED000A774890ED050A00
:100AE0007F4880ED000A7548006809F003FD41EC7D
:100AF000190BB0EE491AF0EE691A7A4890ED000B26
:100B0000FFF7D2FEB0EE408AF0EE608A51EC180B8F
:100B100008F0F2FF7449086000206549087003E09E
:100B200000206349087000BF34E028216F4805F0B9
:100B3000ECF940F227716D4805F0E7F940F22531F4
:100B40006A4805F0E2F940F22661684805F0DDF9EF
:100B500040F22441654805F0D8F940F64601634863
:100B600005F0D3F940F66A11604805F0CEF960212E
:100B70005E4805F0CAF94FF458715C4805F0C5F9B4
:100B80004FF41871594805F0C0F94FF4B071574847
:100B900005F0BBF9BDEC048B10BD10B588B0044660
:100BA0000121022004F042FE0121880404F087FEA6
:100BB0003D4804F08FFF07220B214D4804F023FC31
:100BC00007220A214A4804F01EFC4FF440600590B9
:100BD00002208DF818008DF8190000208DF81A00F9
:100BE00001208DF81B0005A9414804F081FB019408
:100BF0000020ADF80800ADF80A00ADF80C00ADF823
:100C000010000C20ADF80E0001A9274804F0C9FF20
:100C10000121254805F04DF8012240F225512248D6
:100C200005F0FDF827208DF81C0000208DF81D0030
:100C30008DF81E0001208DF81F0007A804F067FA48
:100C400000202C49088008B010BD0FB438B505A8A5
:100C500000902948009A049906F0E4FE00200090D4
:100C6000254806F0C1FF85B200240DE000BF4021F9
:100C70000D4805F0F9F80028F9D01F48015D0A4831
:100C800005F042F8601C84B2AC42EFDB38BC5DF882
:100C900014FB00004AD8124DFB2109404AD8124DDE
:100CA000FB211940A48242420048004084000020F9
:100CB0008C0000208D0000208805002064000020AA
:100CC000680000206C0000205800002088000020F0
:100CD0007B14AE47E17A743F600000205C00002086
:100CE000700000207800002048000020004C0040E8
:100CF00000040240380000206802002010B540F2D5
:100D00002551A14805F0C6F800287DD040F22551B4
:100D10009D4805F0FAF89C4804F0FAFF9B490870DA
:100D20009B480078052878D2DFE800F00311263EC2
:100D30004C00964800780D2805D195480078401C55
:100D40009349087002E000209149087069E08F48DB
:100D500000780A2808D18E480078401C8C49087019
:100D600000208C49087006E0884800780D2802D0E1
:100D700000208749087054E08448007840B28649D2
:100D8000844A1278885483480078401C814908704E
:100D900008460078182806DB002008707C48007898
:100DA000401C7B4908703CE0784800780A2805D14F
:100DB00077480078401C7649087002E000207449AA
:100DC00008702EE0714800780D2822D17348006821
:100DD00008B9012000E00020704908606E480068F2
:100DE0006F4908606C4840686E4908606A488068CE
:100DF0006D4908606848C0686C49086066480069C9
:100E00006B490860644801E00CE006E0406969490C
:100E1000086000205E49087003E000205C4908700B
:100E200000BF34E02821584805F06FF840F22771E0
:100E3000554805F06AF840F22531534805F065F849
:100E400040F22661504805F060F840F224414E48D7
:100E500005F05BF840F646014B4805F056F840F6C1
:100E60006A11494805F051F86021474805F04DF8EE
:100E70004FF45871444805F048F84FF4187142484F
:100E800005F043F84FF4B0713F4805F03EF810BD4F
:100E900010B588B004460121084604F0C7FC0121C2
:100EA000480404F00CFD384804F014FE0722032126
:100EB000414804F0A8FA072202213F4804F0A3FAAF
:100EC0000C20059002208DF818008DF819000020E4
:100ED0008DF81A0001208DF81B0005A9364804F092
:100EE00007FA01940020ADF80800ADF80A00ADF84B
:100EF0000C00ADF810000C20ADF80E0001A922483E
:100F000004F04FFE0121204804F0D3FE012240F2FC
:100F100025511D4804F083FF26208DF81C00002079
:100F20008DF81D0003208DF81E0001208DF81F0094
:100F300007A804F0ECF800202049088008B010BD94
:100F40000FB438B505A800901D48009A049906F022
:100F500069FD002000901A4806F046FE85B2002484
:100F60000DE000BF4021084804F07EFF0028F9D0C2
:100F70001348015D044804F0C7FE601C84B2AC4213
:100F8000EFDB38BC5DF814FB00440040AF000020EC
:100F9000B0000020B1000020C0080020A48242421E
:100FA00098000020940000209C000020A000002059
:100FB000A4000020A80000200000024090000020B3
:100FC000A00500201CB50121202004F02FFC40F2D8
:100FD0001F60009001208DF8040000208DF80600AD
:100FE00003208DF8050001208DF807006946FD48B3
:100FF00004F07EF940F21F61FA4804F0F5F91CBDD7
:1010000008B5F9480078012805D1F8490870F84872
:101010000068F8490860F548007840B9F6484FF490
:101020007A731A4601210090002001F0A9FCEF48D4
:101030000078F8B1EF48006846F2A8110844EF4B79
:1010400041F2883201210090002001F099FC4420F7
:1010500003F02CFC462003F049FCE5480068E54914
:10106000096846F2A8121144884201DD012008BD3A
:101070000020FCE70020FAE700B52DED048B81B0DD
:10108000DF48006809F036FA41EC190B9FEDDD0BE3
:1010900053EC102B08F062FD41EC180B08F02CFD0E
:1010A000D7490860D948006830B1012810D002281B
:1010B00030D003283DD13AE0FFF7A2FF38B101203C
:1010C000D2490860002001B0BDEC048B00BD31E0C6
:1010D000C848006846F678110844C84B41F2883287
:1010E00001210090002001F04BFC4B2003F0DEFBBF
:1010F0004B2003F0FBFBBE480068BE49096846F67A
:1011000078121144884204DD0220C04908600020A2
:10111000D9E70FE00221B34804F068F90421B1488F
:1011200004F064F90320B94908600020CBE70120EE
:10113000C9E700BF00BF00BFC5E700B52DED048BB8
:1011400081B0B348006809F0D5F941EC190B9FED67
:10115000AD0B53EC102B08F001FD41EC180B08F01F
:10116000CBFCAB490860AB48006830B1012810D017
:10117000022830D003283DD13AE0FFF741FF38B1D3
:101180000120A4490860002001B0BDEC048B00BD23
:1011900031E09848006846F678110844974B41F2D0
:1011A000883201210090002001F0EAFB3F2003F08B
:1011B0007DFB412003F09AFB8D4800688D4909684A
:1011C00046F678121144884204DB022091490860F7
:1011D0000020D9E70FE00221824804F007F904213A
:1011E000804804F003F903208A4908600020CBE717
:1011F0000120C9E700BF00BF00BFC5E700B52DED66
:10120000048B81B08448006809F074F941EC190B33
:101210009FED7C0B53EC102B08F0A0FC41EC180B5D
:1012200008F06AFC7C4908607C480068012806D008
:10123000022823D0032829D004284ED13BE00221E4
:10124000684804F0D3F86B480068754908446B4B54
:1012500041F2883201210090002001F091FB2D2005
:1012600003F024FB62480068624909686C4A114433
:10127000884202DD0220694908602FE001215948B7
:1012800004F0B4F803206549086027E0624800686C
:1012900009F030F941EC180B9FED620B53EC102B69
:1012A00008F0FCFF06D802214E4804F09DF8042007
:1012B0005A49086012E05848006809F01BF941ECEF
:1012C000180B9FED5A0B53EC102B08F0E7FF03D2DD
:1012D0000121444804F088F800E000BF00BF4E48F8
:1012E000006809F007F941EC180B9FED520B53EC25
:1012F000102B08F0D3FF04D2012001B0BDEC048B09
:1013000000BD0020F9E700B52DED048B81B04B48FE
:101310000068012806D0022825D003284AD00428D6
:101320005FD1A4E004212F4804F060F83148006840
:101330004BF680310844314B41F288320121009054
:10134000002001F01DFB232003F0D0FA284800689C
:10135000284909684BF680321144884202DB02209A
:1013600036490860BAE03648006809F0C3F841EC35
:10137000190B9FED240B53EC102B08F0EFFB41EC05
:10138000180B08F0B9FB2E4908600846006809F000
:10139000B1F841EC180B9FED2B0B53EC102B08F020
:1013A0007DFF06D201210F4804F020F803202349D5
:1013B000086093E02248006809F09CF841EC190BA2
:1013C0009FED100B53EC102B08F0C8FB41EC180BF1
:1013D00008F092FB1A4908600846006809F08AF88C
:1013E00034E07AE0001402403A010020B800002006
:1013F000FC080020B4000020C0F2FCFF24FAFFFF2C
:10140000BC0000207B14AE47E17A743FC00000208E
:10141000C4000020C8000020CC000020D000002024
:10142000905F010066666666666606403333333356
:10143000333307403333333333330B40D80000208A
:10144000D40000209A9999999999E93F41EC180B99
:101450001FED0C0B53EC102B08F020FF06D20421DB
:10146000684803F0C1FF04206749086036E0674818
:10147000006809F03FF841EC190B1FED1E0B53EC0F
:10148000102B08F06BFB41EC180B08F035FB5F49A3
:1014900008600846006809F02DF841EC180B9FED34
:1014A0005C0B53EC102B08F0F9FE03D201215548D8
:1014B00003F09AFF5548006809F01CF841EC180B3E
:1014C0009FED550B53EC102B08F0E8FE04D20120E1
:1014D00001B0BDEC048B00BD00E000BF00BF0020E8
:1014E000F6E700B52DED048B81B04D48006809F09A
:1014F00001F841EC190B1FED3D0B53EC102B08F0DC
:101500002DFB41EC180B08F0F7FA454908604548F7
:101510000068012806D002282BD0032831D00428E7
:101520005AD147E00221374803F060FF04213548D3
:1015300003F05CFF3C4800683C4908443C4B41F2E6
:10154000883201210090002001F01AFA2D2003F0CA
:10155000ADF93C2003F0CAF9364800683249096801
:10156000324A643A1144884202DB02202D49086065
:1015700033E00121234803F039FF032029490860A3
:101580002BE02748006808F0B5FF41EC180B9FEDF1
:101590002A0B53EC102B08F081FE0AD802211948BF
:1015A00003F022FF0421174803F01EFF04201D4909
:1015B000086012E01A48006808F09CFF41EC180B24
:1015C0009FED1F0B53EC102B08F068FE03D2012196
:1015D0000C4803F009FF00E000BF00BF104800689E
:1015E00008F088FF41EC180B9FED170B53EC102B04
:1015F00008F054FE04D2012001B0BDEC048B00BD04
:101600000020F9E700140240D8000020D400002098
:10161000CDCCCCCCCCCC0C40CDCCCCCCCCCC10409C
:10162000DC000020E0000020B4000020D8530100BE
:1016300024FAFFFFFC080020666666666666FE3FC9
:1016400033333333333303406666666666660E4073
:101650002DE9F0418AB004460D4616461F46DDF8D6
:1016600040800121084604F0E1F80121480604F019
:1016700026F94FF4C050059002208DF81800002084
:101680008DF81A0003208DF8190001208DF81B0039
:1016900005A9FE4803F02CFE09220B21FB4803F0AC
:1016A000B2FE09220C21F94803F0ADFE00208DF8AE
:1016B00022008DF823008DF8240001208DF82500EC
:1016C00000208DF826008DF827008DF81E808DF8FB
:1016D0001F408DF820608DF82150ADF81C7007A9CF
:1016E000EB4804F03AFC00208DF80E008DF80F0056
:1016F00001208DF810000020ADF80400ADF80600C0
:10170000ADF80800ADF80A00ADF80C0001208DF826
:10171000110001A804F0ABFC00200AB0BDE8F08184
:10172000F0B585B007460C4615461E4600970020CA
:101730008DF808008DF8090008208DF80A00200AAD
:101740008DF80B00E1B28DF80C10290A8DF80D1000
:10175000E9B28DF80E10310A8DF80F10F1B28DF844
:1017600010106946CA4804F071FD012005B0F0BDB3
:10177000F0B585B007460D46002412200090019078
:1017800000208DF808008DF809008DF80A5000BF80
:1017900005E0395D0DF10B000155601C84B2AC42CF
:1017A000F7DB6946BA4804F051FD0646002401E023
:1017B000601C84B23146B64804F0E0FD18B940F62A
:1017C000FF708442F4DB40F6FF70844202DB0120AC
:1017D00005B0F0BD0020FBE72DE9F0472DED0C8BA7
:1017E00006460C4617461D46DDE914899FEDA90AF9
:1017F000F0EE408A9FEDA80AB0EE409AB2EE020ADF
:10180000F0EE409A707B20802078000200B22080A9
:10181000B4F90000B17B08432080286808F0D9FBA8
:1018200041EC1D0B9FED9D0B53EC102B08F038FC89
:1018300041EC1B0BB4F9000008F0CBFB41EC1D0B95
:101840009FED980B53EC102B08F02AFC41EC1C0B7D
:1018500053EC1B2B08F082F941EC1A0B08F08AFBC1
:1018600000B22080B4F90010C81B08F0B2FB41ECB4
:101870001B0BD8F8000008F0ACFB41EC1D0B9FEDF2
:101880008B0B53EC102B08F00BFC41EC1C0B53ECB6
:101890001B2B08F063F941EC1A0B08F06BFBC8F83E
:1018A0000000B4F900002968401A08EE100AB4F9E3
:1018B00000002860B4F90000381A00EE100AB8EEF3
:1018C000C00A20EE280AD8ED000AF8EEE00A09EE78
:1018D000200AF8EEC80A09EEE00ABDEEC00A10EED2
:1018E00010AAD9F800005044C9F80000D9F8000047
:1018F000BDEC0C8BBDE8F0872DE9F0472DED0C8B8E
:1019000006460C4617461D46DDE914899FED690A17
:10191000F0EE408A9FED600AB0EE409AB2EE040A03
:10192000F0EE409A707B20802078000200B2208088
:10193000B4F90000B17B08432080286808F049FB17
:1019400041EC1D0B9FED550B53EC102B08F0A8FB41
:1019500041EC1B0BB4F9000008F03BFB41EC1D0B04
:101960009FED500B53EC102B08F09AFB41EC1C0B35
:1019700053EC1B2B08F0F2F841EC1A0B08F0FAFAC2
:1019800000B22080B4F90010C81B08F022FB41EC23
:101990001B0BD8F8000008F01CFB41EC1D0B9FED61
:1019A000430B53EC102B08F07BFB41EC1C0B53EC6E
:1019B0001B2B08F0D3F841EC1A0B08F0DBFAC8F83F
:1019C0000000B4F900002968401A08EE100AB4F9C2
:1019D00000002860B4F90000381A00EE100AB8EED2
:1019E000C00A20EE280AD8ED000AF8EEE00A09EE57
:1019F000200AF8EEC80A09EEE00ABDEEC00A10EEB1
:101A000010AAD9F800005044C9F80000D9F8000025
:101A1000BDEC0C8BBDE8F087F0B585B004460D46F3
:101A20001646032724482549254B2246CDE90010B8
:101A300004A92448FFF7D0FE23490860234824491D
:101A4000244B2A46CDE9001003A92348FFF754FF91
:101A50002249086022482349234B3246CDE9001031
:101A600002A92248FFF7B8FE21490860164800681D
:101A7000B0F5C85F4EDD4FF4C850134908601748F1
:101A800000684FF4C85148430F4933E0000002405A
:101A900000640040EC51383E000000006666666657
:101AA0006666E63F333333333333D33F9A9999999C
:101AB0009999E93F9A99993E6001002054010020CC
:101AC00048010020280200206C0100206401002051
:101AD000580100204C0100203C0200207001002031
:101AE000680100205C01002050010020500200200D
:101AF00074010020096890FBF1F0FE490860FE487F
:101B000000684FF4C8514843FC49096890FBF1F064
:101B1000F9490860F7480068B0F5C85F19DD4FF46F
:101B2000C850F4490860F54800684FF4C85148436C
:101B3000F049096890FBF1F0F0490860EE48006850
:101B40004FF4C8514843EB49096890FBF1F0EA496A
:101B50000860E9480068B0F5C85F19DD4FF4C85067
:101B6000E5490860E54800684FF4C8514843E24938
:101B7000096890FBF1F0E1490860DE4800684FF425
:101B8000C8514843DC49096890FBF1F0D949086025
:101B9000D948008803B2D748008802B2D7480088E5
:101BA00001B24FF40070FFF7BBFD05B0F0BD70B59A
:101BB00086B006460021D24804F0C0FC10B90020CF
:101BC00006B070BD01AA0021CD4804F034FC40F2FB
:101BD0000121019888421AD1002404E00DF10F0080
:101BE000005D3055641C9DF80E00A042F6D89DF8AB
:101BF0001150280205B29DF81200054300EE105A5C
:101C0000B8EEC00ABF4880ED000A03F06AF99DF8FB
:101C10000E00D5E72DE9F0432DED108B87B0F0EEE7
:101C2000408AB0EE609AF0EE419A1FED650A10EE20
:101C3000104A1FED670A10EE105A1FED690AB0EE48
:101C4000408A00260027B046AF4890ED000A38EEE3
:101C5000C00AAE4880ED000AAD4890ED000A39EEAA
:101C6000400AAC4880ED000AAB4890ED000A39EE1E
:101C7000C00AAA4880ED000AA948AA49097800EBE1
:101C8000810090ED000AA848D0ED000A30EEC00AAD
:101C900080ED000A90ED000A9C48D0ED000A30EE7D
:101CA000200AA14880ED000A984890ED000A9C485F
:101CB0009C49097800EB810080ED000A9948007882
:101CC000401C032190FBF1F201FB120095490870C2
:101CD00096489749097800EB810090ED000A9548F5
:101CE000D0ED000A30EEC00A80ED000A90ED000A47
:101CF0008848D0ED000A30EE200A8E4880ED000AB8
:101D0000844890ED000A89488949097800EB8100F0
:101D100080ED000A86480078401C032190FBF1F218
:101D200001FB12008249087083488449097800EB5E
:101D3000810090ED000A8248D0ED000A30EEC00A22
:101D400080ED000A90ED000A7448D0ED000A30EEF4
:101D5000200A7B4880ED000A704890ED000A764822
:101D60007649097800EB810080ED000A734800781D
:101D7000401C032190FBF1F201FB12006F49087037
:101D8000704890ED000A6148D0ED000A20EE200A6C
:101D90006D48D0ED000A644890ED001A00EE810A0B
:101DA0005A48D0ED000A694890ED001A70EEC10A59
:101DB000674890ED001A01EE200A10EE104A6548BF
:101DC00090ED000A5348D0ED000A20EE200A624848
:101DD000D0ED000A574890ED001A00EE810A4D48F8
:101DE000D0ED000A5D4890ED001A70EEC10A5C4823
:101DF00090ED001A01EE200A10EE105A594890EDAD
:101E0000000A4648D0ED000A20EE200A5648D0EDE0
:101E1000000A4B4890ED001A00EE810A3F48D0EDD1
:101E2000000A524890ED001A70EEC10A504890ED39
:101E3000001A01EE200AB0EE408A9FED4E0A28EE0D
:101E4000000A10EE101A084608F054FB41EC1A0B79
:101E5000204608F04FFB41EC1B0B2F4890ED000A89
:101E60009FED451AC0EE010A9FED440A20EE800A5C
:101E700010EE109A484608F03DFB41EC1D0BB0EE09
:101E80004D0AF0EE6D0A07F00FF9B0EE40CAF0EE21
:101E900060CA53EC1B2B51EC1C0B08F001F941EC10
:101EA0001F0B284608F026FB41EC1B0B1A48D0ED0F
:101EB000000A9FED311A80EE810ADFED300A20EE34
:101EC000200A10EE109A484608F014FB41EC1D0B56
:101ED000B0EE4D0AF0EE6D0A07F04AF9B0EE40CAD6
:101EE000F0EE60CA53EC1B2B51EC1C0B08F0D8F839
:101EF00046E0000070010020740100206C01002009
:101F000000640040180900205800002088010020CB
:101F10005C0000209401002064000020A00100204B
:101F2000D8080020ED0000207C010020E4080020FB
:101F3000EE00002080010020F0080020EF000020CB
:101F400084010020F0000020F40000208C0100201B
:101F5000F8000020FC000020000100209801002073
:101F600004010020080100200C010020A401002031
:101F7000100100200000FB4300003443DA0F494009
:101F800053EC1F2BCDE902019DED020B51EC100B20
:101F900007F0E4FD53EC1A2BCDE904019DED040B91
:101FA00051EC100B07F0DAFD41EC1E0B07F0E2FFDD
:101FB00047421FED100A28EE000A10EE101A0846DC
:101FC00008F098FACDE90401204608F093FA41ECB4
:101FD0001B0BFE4890ED000ADFEDFD0A30EEC00A53
:101FE0005FED1B0A80EE201A1FED1C0A21EE000A8D
:101FF00010EE109A484608F07DFA41EC1D0BB0EE49
:102000004D0AF0EE6D0A07F04FF8B0EE40CAF0EE60
:1020100060CA53EC1B2B51EC1C0B08F041F841EC4F
:102020001E0B284608F066FA41EC1B0BE74890EDC2
:10203000000ADFEDE70A30EEC00A5FED310A80EEFC
:10204000201A1FED320A21EE000A10EE109A4846BF
:1020500008F050FA41EC1D0BB0EE4D0AF0EE6D0A9F
:1020600007F086F8B0EE40CAF0EE60CA53EC1B2BC6
:1020700051EC1C0B08F014F841EC1F0B53EC1E2B19
:1020800008F04EF9CDE902019DED040B53EC102B45
:102090009DED020B51EC100B07F060FD41EC1A0BAB
:1020A00007F068FFC0F100081FED4E0A28EE000A95
:1020B00010EE101A084608F01DFA41EC1A0B2046E3
:1020C00008F018FA41EC1B0BC04890ED000ADFED58
:1020D000C00A70EE200A1FED581A80EE810A5FEDEB
:1020E000590A20EE200A10EE109A484608F002FA2B
:1020F00041EC1D0BB0EE4D0AF0EE6D0A06F0D4FF78
:10210000B0EE40CAF0EE60CA53EC1B2B51EC1C0B36
:1021100007F0C6FF41EC1E0B284608F0EBF941EC36
:102120001B0BAA4890ED000ADFEDA90A30EE200A49
:102130005FED6F0A80EE201A1FED700A21EE000A93
:1021400010EE109A484608F0D5F941EC1D0BB0EEA0
:102150004D0AF0EE6D0A07F00BF8B0EE40CAF0EE53
:1021600060CA51EC1C0B07F0BBFC53EC1B2BCDE9F8
:1021700000019DED000B51EC100B07F091FF53ECAB
:102180001E2BCDE902019DED020B51EC100B08F066
:10219000C7F841EC1F0B53EC1A2B07F0DFFCCDE91D
:1021A00004019DED040B51EC100B07F0E3FE4642D9
:1021B000884890ED000A884880ED000A874890ED35
:1021C000000A874880ED000A864890ED000A8148A1
:1021D00080ED000A844890ED000A804880ED000AF6
:1021E000824890ED000A824880ED000A814890ED17
:1021F000000A7E4880ED000A7A4890ED000AB5EEAC
:10220000C00AF1EE10FA02DD90ED000A04E0754814
:1022100090ED000AB1EE400AF1EE000AB4EEE00AD9
:10222000F1EE10FA3FD2704890ED000AB5EEC00A08
:10223000F1EE10FA02DD90ED000A04E06A4890ED3C
:10224000000AB1EE400AF1EE000AB4EEE00AF1EE47
:1022500010FA28D2674890ED000AB5EEC00AF1EEF8
:1022600010FA02DD90ED000A04E0624890ED000AE9
:10227000B1EE400A10EE101A084608F03BF941ECA6
:102280001A0B9FED5D0B53EC102B07F0CDFE0AD21D
:10229000002211461046FFF7BFFB012007B0BDEC3E
:1022A000108BBDE8F083424639463046FFF7B4FB59
:1022B0000020F3E730B52DED108B89B0B0EE408AE9
:1022C000F0EE608AB0EE419A02251FEDD60A29EEA3
:1022D000000A10EE101A084608F00CF941EC1F0B2A
:1022E00018EE100A08F006F941EC1B0B374890ED88
:1022F000000A5FEDDF0A80EE201A1FEDE00A21EEF2
:10230000000A10EE104A204608F0F4F841EC1D0BCC
:10231000B0EE4D0AF0EE6D0A06F0C6FEB0EE40CA11
:10232000F0EE60CA53EC1B2B51EC1C0B07F0B8FE0F
:10233000CDE9040118EE900A08F0DCF841EC1B0B23
:10234000224890ED000A5FEDF40A80EE201A1FED9E
:10235000F50A21EE000A10EE104A204608F0CAF8ED
:1023600041EC1C0BB0EE4C0AF0EE6C0A06F000FFDC
:10237000B0EE40DAF0EE60DA53EC1B2B51EC1D0BA3
:1023800007F08EFECDE902019DED040B53EC102BFE
:102390009DED020B51EC100B07F0E0FB53EC1F2BF3
:1023A000CDE906019DED060B51EC100B07F0D6FBB5
:1023B00041EC1E0B07F0A0FB0AEE100A9FED100A7D
:1023C00029EE000A10EE101A08461BE064000020F7
:1023D000000070428C010020900100209801002034
:1023E0009C0100208801002094010020A40100200D
:1023F000A8010020A00100209A9999999999E93F94
:102400000000FB4308F076F841EC1E0B18EE100AB2
:1024100008F070F841EC1B0BF94890ED000A5FEDF5
:10242000140A30EEC00ADFEDF70A80EE201A9FEDA5
:10243000F60A21EE000A10EE104A204608F05AF87B
:1024400041EC1D0BB0EE4D0AF0EE6D0A06F02CFECD
:10245000B0EE40CAF0EE60CA53EC1B2B51EC1C0BE3
:1024600007F01EFECDE9040118EE900A08F042F8CC
:1024700041EC1B0BE24890ED000A5FED2B0A70EE79
:10248000C00A9FEDE01A80EE810ADFEDDF0A20EE40
:10249000200A10EE104A204608F02CF841EC1C0BE4
:1024A000B0EE4C0AF0EE6C0A06F062FEB0EE40DAD6
:1024B000F0EE60DA53EC1B2B51EC1D0B07F0F0FD36
:1024C000CDE902019DED040B53EC102B9DED020BA9
:1024D00051EC100B07F024FF53EC1E2BCDE9060145
:1024E0009DED060B51EC100B07F038FB41EC1F0B78
:1024F00007F002FB0AEE900A1FED3F0A29EE000AE0
:1025000010EE101A084607F0F5FFCDE9040118EEA9
:10251000100A07F0EFFF41EC1B0BB94890ED000AE1
:102520005FED550A70EE200A9FEDB61A80EE810A23
:10253000DFEDB50A20EE200A10EE104A204607F023
:10254000D9FF41EC1D0BB0EE4D0AF0EE6D0A06F01E
:10255000ABFDB0EE40CAF0EE60CA53EC1B2B51EC61
:102560001C0B07F09DFD41EC1F0B18EE900A07F0C5
:10257000C1FF41EC1B0BA24890ED000A5FED6C0A15
:1025800030EE201ADFED9F0A81EE200ADFED9E0A71
:1025900020EE200A10EE104A204607F0ABFF41EC77
:1025A0001C0BB0EE4C0AF0EE6C0A06F0E1FDB0EE4A
:1025B00040EAF0EE60EA51EC1E0B07F091FA41ECB4
:1025C0001D0B53EC1B2B07F06BFD53EC1F2BCDE9C0
:1025D00000019DED000B51EC100B07F0A1FECDE9C1
:1025E00002019DED040B53EC102B9DED020B51EC01
:1025F000100B07F0B3FACDE906019DED060B51EC87
:10260000100B07F079FA09EE900AB1EE4A0AF3EEE0
:102610000E0A20EE200AF3EE030A20EE200A10EE46
:10262000101A084607F066FF41EC1C0B9FED770B74
:1026300053EC102B07F046FB41EC1B0B07F09AFC08
:1026400000EE100AB8EEC00AB0EE40AAB1EE690A78
:10265000F3EE0E0A20EE200AF3EE030A20EE200A23
:1026600010EE101A084607F045FF41EC1C0B9FEDD9
:10267000670B53EC102B07F025FB41EC1B0B07F00D
:1026800079FC00EE100AB8EEC00AF0EE409AB1EE06
:102690006A0AF3EE0E0A20EE200AF3EE030A20EE99
:1026A000200A10EE101A084607F024FF41EC1C0B1C
:1026B0009FED560B53EC102B07F004FB41EC1B0B6A
:1026C00007F058FC00EE100AB8EEC00AF0EE40AA7F
:1026D000BDEEEA0A10EE102ABDEECA0A10EE101A7C
:1026E000BDEEE90A10EE100AFFF796F909B0BDEC4D
:1026F000108B30BDF0EE400AB7EE001AB0EE410A82
:10270000012104E020EE201AB0EE410A491C81426A
:10271000F8DD704710B52DED0A8B9FED3E0AB0EE47
:10272000409AB8EE050AF0EE409AB0EE0C0AB0EE10
:1027300040AA0420384991ED000AFFF7DBFFF1EED3
:10274000040A69EE200A60EE201A0320324991ED56
:10275000000AFFF7CFFFF1EE000A69EEA00A40EE93
:10276000801A02202C4991ED000AFFF7C3FFF0EE1A
:10277000080A6AEE200A40EE801AB0EE618A18EE6E
:10278000100A07F0B7FE41EC1C0B9FED240B53EC35
:10279000102B07F085FC41EC1B0B07F0ADF908EEA0
:1027A000900A1D48006807F0A5FE41EC1C0B9FED48
:1027B0001D0B53EC102B07F0D1F941EC1B0B07F06C
:1027C0009BF915490860084690ED000AF0EE000AF2
:1027D000B4EEE00AF1EE10FA08DB002211461046D2
:1027E000FFF71AF90120BDEC0A8B10BD9FED0F1AFF
:1027F000F0EE680AB0EE480AFFF75CFD0020F2E751
:102800006400002000003443DA0F49409EEFA746E1
:10281000AAF6CE3F6666063FAC0100203BDF4F8D37
:10282000976E923F7B14AE47E17A743F0000000040
:1028300010B52DED088BFE48006807F05BFE41ECFB
:10284000190B9FEDFC0B53EC102B07F0EDFB12D88E
:10285000F748006807F04EFE41EC1A0B9FEDF70BAE
:1028600053EC102B07F01CFC41EC190B07F044F95A
:1028700008EE100A36E0EE48006807F03BFE41EC37
:10288000190B9FEDF00B53EC102B07F0CDFB02D88A
:102890009FEDEE8A26E0E648006807F02BFE41EC4B
:1028A000190B9FEDEB0B53EC102B07F0BDFB19D868
:1028B000DF48006807F01EFE41EC1B0B9FEDE40BA8
:1028C00053EC102B07F020FD41EC1A0B9FEDDB0BB6
:1028D00053EC102B07F0E4FB41EC190B07F00CF95B
:1028E00008EE100A18EE100A07F004FE41EC1A0B6D
:1028F0001FED360B53EC102B07F0D2FB41EC190BFC
:1029000007F0FAF808EE900AC948006807F0F2FDEF
:1029100041EC1A0B1FED3D0B53EC102B07F01EF989
:1029200041EC190B07F0E8F8C1490860084690ED42
:10293000000AF0EE000AB4EEE00AF1EE10FA08DD4B
:10294000002211461046FFF767F80120BDEC088B06
:1029500010BD1FED4A1AF0EE680AB0EE480AFFF704
:10296000A9FC0020F2E710B5002106E0282200BFF4
:102970001300A2F10102FBD1491C8142F6D310BD24
:102980002DE9F04385B080460F4614461D460C9E47
:102990004FF0060900208DF808008DF80900082086
:1029A0008DF80A00B8F1070F06DC0F2F04DC49EAA6
:1029B000082949EA071902E005B0BDE8F083CDF81F
:1029C000009041F28830844201DD044603E0A248D1
:1029D000844200DA0446002C04DA01DD204600E0DF
:1029E000604204B2002D04DA01DD284600E06842AE
:1029F00005B2200A8DF80B00E1B28DF80C10290AFF
:102A00008DF80D10E9B28DF80E10310E8DF80F1003
:102A1000310C8DF81010310A8DF81110F1B28DF8CB
:102A2000121000208D49087069468D4803F00EFC95
:102A300000208C4908600CE00120FFF794FF8948D2
:102A40000068401C8749086008460068642800D96F
:102A500003E0824800780028EED000BF00BFABE75B
:102A600000B52DED0A8B81B09FED7F0AB0EE409A44
:102A70009FED7E0AF0EE409A9FED7D0AB0EE40AAEF
:102A800004207C4991ED000AFFF734FEF1EE040AC0
:102A900069EE200A60EE201A0320764991ED000AC3
:102AA000FFF728FEF1EE000A69EEA00A40EE801A58
:102AB0000220704991ED000AFFF71CFEF0EE080AB3
:102AC0006AEE200A40EE801AB0EE618A18EE100A13
:102AD00007F010FD41EC1C0B9FED670B53EC102B26
:102AE00007F0DEFA41EC1B0B07F006F808EE900A3F
:102AF0006048006807F0FEFC41EC1C0B1FEDB70BB3
:102B000053EC102B07F02AF841EC1B0B06F0F4FFF6
:102B100058490860084690ED000AF0EE000AB4EE4D
:102B2000E00AF1EE10FA0EDD5548006855490844F8
:102B3000554B41F28832012100900020FFF720FF21
:102B40002D2001F0B3FE4B48006807F0D3FC41ECA8
:102B50001B0B9FED4E0B53EC102B07F09FFB09D87E
:102B6000002211461046FEF757FF012001B0BDECD0
:102B70000A8B00BD1FEDD31AF0EE680AB0EE480ACA
:102B8000FFF798FB0020F1E710B52DED0A8B9FEDC4
:102B9000410AB0EE409A9FED400AF0EE409A9FED58
:102BA0003F0AB0EE40AA04203D4991ED000AFFF72C
:102BB000A1FDF1EE040A69EE200A60EE201A03205E
:102BC000374991ED000AFFF795FDF1EE000A69EE35
:102BD000A00A40EE801A0220314991ED000AFFF769
:102BE00089FDF0EE080A6AEE200A40EE801AB0EE87
:102BF000618A18EE100A07F07DFC41EC1C0B9FED7A
:102C0000290B53EC102B07F04BFA41EC1B0B06F091
:102C100073FF08EE900A2248006807F06BFC41EC55
:102C20001C0B9FED220B53EC102B06F097FF41E09D
:102C3000B0010020000000000000E03F04CAA65CD4
:102C4000E1DD0D40000000000000F83F0BEFEE3F1B
:102C5000000000000000004078ECFFFF240100208D
:102C600000640040200100208B8D54BBA87A683D91
:102C7000E29C87BEB401002077A04E797423C43F44
:102C8000B40000202C5F010024FAFFFF00000000C8
:102C900000001A40AF424ABD2FA1BD3E34A13DBF46
:102CA000B80100209A9999999999E1BF7B14AE4790
:102CB000E17A743F41EC1B0B06F01EFFFE490860F1
:102CC000084690ED000AF0EE080AB4EEE00AF1EED4
:102CD00010FA08DB002211461046FEF79DFE012087
:102CE000BDEC0A8B10BD9FEDF51AF0EE680AB0EE50
:102CF000480AFFF7DFFA0020F2E710B52DED088B48
:102D0000BCEE080AF0EE408AB6EE0E0AB0EE409A2B
:102D1000BFEE040AF0EE409A0420E94991ED000A62
:102D2000FFF7E8FCF1EE040A68EEA00A60EE201A54
:102D30000320E34991ED000AFFF7DCFCF1EE000A05
:102D400069EE200A40EE801A0220DD4991ED000A6A
:102D5000FFF7D0FCF0EE080A69EEA00A40EE801AF8
:102D6000B0EE618AD648006807F0C4FB41EC1B0B4B
:102D70001FED320B53EC102B06F0F0FE41EC1A0B5A
:102D800006F0BAFECE490860084690ED000AF0EE63
:102D9000000AB4EEE00AF1EE10FA08DB0022114658
:102DA0001046FEF739FE0120BDEC088B10BD9FEDEB
:102DB000C31AF0EE480A9FEDC10AFFF77BFA002024
:102DC000F2E700B52DED0A8B81B09FEDBE0AB0EEA3
:102DD000409A9FEDBD0AF0EE409A9FEDBC0AB0EE1E
:102DE00040AA0420BA4991ED000AFFF783FCF1EEF6
:102DF000040A69EE200A60EE201A0320B44991ED1E
:102E0000000AFFF777FCF1EE000A69EEA00A40EE37
:102E1000801A0220AE4991ED000AFFF76BFCF0EE3C
:102E2000080A6AEE200A40EE801AB0EE618A18EEB7
:102E3000100A07F05FFB41EC1C0B9FEDA60B53EC57
:102E4000102B07F02DF941EC1B0B06F055FE08EE98
:102E5000900A9F4890ED000AF1EE040AB4EEE00AF1
:102E6000F1EE10FA12DD9D48006846F6781108442C
:102E70009B4B41F28832012100900020FFF780FD3A
:102E80003F2001F013FD412001F030FD9048006823
:102E900007F030FB41EC1C0B1FED7C0B53EC102BAF
:102EA00006F05CFE41EC1B0B06F026FE884908602C
:102EB0000846006807F01EFB41EC1B0B9FED890BD9
:102EC00053EC102B07F0EAF909D8002211461046FE
:102ED000FEF7A2FD012001B0BDEC0A8B00BD9FED05
:102EE000771AF0EE680AB0EE480AFFF7E3F900201F
:102EF000F1E700B52DED0A8B81B09FED7C0AB0EEB5
:102F0000409A9FED7B0AF0EE409A9FED7A0AB0EE70
:102F100040AA0420784991ED000AFFF7EBFBF1EE9F
:102F2000040A69EE200A60EE201A0320724991ED2E
:102F3000000AFFF7DFFBF1EE000A69EEA00A40EE9F
:102F4000801A02206C4991ED000AFFF7D3FBF0EEE6
:102F5000080A6AEE200A40EE801AB0EE618A18EE86
:102F6000100A07F0C7FA41EC1C0B9FED640B53EC01
:102F7000102B07F095F841EC1B0B06F0BDFD08EE99
:102F8000900A5D48006807F0B5FA41EC1C0B1FED94
:102F9000B90B53EC102B06F0E1FD41EC1B0B06F0D6
:102FA000ABFD55490860084690ED000AF0EE080AAE
:102FB000B4EEE00AF1EE10FA11DD4848006851491C
:102FC0000844474B41F28832012100900020FFF76E
:102FD000D7FC2D2001F06AFC3C2001F087FC46481C
:102FE000006807F087FA41EC1B0B9FED470B53EC91
:102FF000102B07F053F909D8002211461046FEF7AE
:103000000BFD012001B0BDEC0A8B00BD9FED2B1A1A
:10301000F0EE680AB0EE480AFFF74CF90020F1E73D
:1030200010B52DED0E8BF0EE408AB7EE000AF0EEF3
:10303000409A9FED220AB0EE40EAB7EE080AF0EEA1
:1030400040EA052001F060FB09EE100AB8EE490ADB
:1030500010EE100A07F04EFA41EC1B0B9FED2C0B03
:1030600053EC102B07F01CF841EC1A0B06F044FD52
:10307000294908600846006807F03CFA41EC1D0B3E
:103080009FED260B53EC102B07F00AF841EC1C0BBC
:103090009FED240B53EC102B07F042F941EC1B0B76
:1030A0009FED220B53EC102B06F00CFE41EC1A0B9B
:1030B00006F022FD1F493FE0B8010020000000009B
:1030C000BC01002008D7DE3A6A460BBD2FB3393E5B
:1030D000C0010020295C8FC2F528CC3FB40000203D
:1030E00024FAFFFF9A99999999991D40FA8F96BAF7
:1030F000C8BAD33C16CC1EBEC40100203ACC9717E8
:10310000601FC13F74530100000000000000214017
:103110006666666666664A3F18010020EC51B81E76
:1031200085C3554014AE47E17A543A400000000090
:10313000000059401C0100200860084690ED000A7C
:1031400030EE680AB0EE408AFA4890ED000A30EEA0
:10315000080A80ED000AF84890ED000A38EE400AAF
:10316000F64880ED000AF44880ED008A29EE880ACE
:10317000F048D0ED000A0EEE200AF048D0ED000A2B
:103180000EEEA00AEE4880ED000A0846006807F03F
:10319000B1F941EC1C0B9FEDEB0B53EC102B07F03E
:1031A000BFF841EC1B0B9FEDE90B53EC102B07F024
:1031B00075F80CD2E748006807F09CF941EC1B0B4E
:1031C0009FEDE00B53EC102B07F0AAF80FE0E1485D
:1031D000006807F08FF941EC1C0B9FEDDA0B53EC04
:1031E000102B07F09DF841EC1B0B06F079FC41EC2D
:1031F0001A0B9FEDD90B53EC102B06F015FF05D2DF
:10320000002211461046FEF707FC0AE01FED551A92
:10321000CB4890ED000AF1EE400A1FED580AFFF787
:1032200049F8BDEC0E8B10BD00B58BB001210846EE
:1032300002F0FCFA0121480602F041FB09220C21B0
:10324000C74802F0E0F809220B21C54802F0DBF87C
:103250004FF4C050029002208DF80C0002A9C04823
:1032600002F046F814208DF8040002208DF80500C5
:1032700001208DF806008DF8070001A801F047FF36
:1032800013208DF8040001208DF805008DF806004C
:103290008DF8070001A801F03AFFB24802F044FEA1
:1032A00008A802F065FF00208DF826008DF82700A1
:1032B0008DF828008DF829008DF82A0001208DF85E
:1032C0002B0000208DF822008DF8230008208DF8B7
:1032D000240003208DF82500ADF8200008A9A1489E
:1032E00002F03BFE00208DF81A008DF81B00012033
:1032F0008DF81C000020ADF81000ADF81200ADF8FC
:103300001400ADF81600ADF8180001208DF81D006E
:1033100004A802F0ACFE01220221924803F0A6F9B3
:10332000012211468F4803F0A1F90BB000BD10B582
:1033300001218C4803F002FA30B10121894803F0E1
:1033400098FA01208849087010BD70B586B004460F
:103350000D46002600208DF80C008DF80D00082089
:103360008DF80E00072C06DC0F2D04DC46EA04263F
:1033700046EA051601E006B070BD019655208DF8AD
:103380000F0055218DF810108DF811108DF81210C6
:103390008DF813108DF814108DF815108DF8161087
:1033A00000207149087001A96E4802F04FFF00200B
:1033B0006E4908600CE00120FFF7D5FA6B48006801
:1033C000401C6A49086008460068642800D903E088
:1033D000654800780028EED000BF00BFCBE7F0B50D
:1033E00085B004460D461746012600208DF80800DA
:1033F0008DF8090008208DF80A00072C06DC0F2D37
:1034000004DC46EA042646EA051601E005B0F0BDF4
:1034100000968DF80B7055218DF80C108DF80D105D
:103420008DF80E108DF80F108DF810108DF811100A
:103430008DF8121000204C4908706946494802F086
:1034400005FF0020494908600CE00120FFF78BFAD6
:1034500046480068401C45490860084600686428E2
:1034600000D903E0404800780028EED000BF00BF3C
:10347000CCE7F0B585B004460D4617460A26002075
:103480008DF808008DF8090008208DF80A00072C37
:1034900006DC0F2D04DC46EA042646EA051601E0A8
:1034A00005B0F0BD00968DF80B7055218DF80C100D
:1034B0008DF80D108DF80E108DF80F108DF810107E
:1034C0008DF811108DF812100020274908706946F8
:1034D000244802F0BBFE0020244908600CE00120D3
:1034E000FFF741FA21480068401C2049086008465F
:1034F0000068642800D903E01B4800780028EED05B
:1035000000BF00BFCCE7F0B585B004460D461646B7
:103510000B2700208DF808008DF8090008208DF891
:103520000A00072C24DC0F2D22DC47EA042747EA97
:1035300005171FE0CC010020C8010020D0010020A9
:10354000140100200AD7A3703D0AC73F0000000005
:10355000000000001C0100207B14AE47E17A943F7C
:1035600000000240006400402401002020010020EF
:1035700005B0F0BD009741F28830864201DD064675
:1035800003E0FA48864200DA06460A208DF80B006E
:1035900000218DF80C1055218DF80D108DF80E10AE
:1035A0008DF80F108DF810108DF811108DF8121085
:1035B0000020EF4908706946EE4802F047FE0020FF
:1035C000ED4908600CE00120FFF7CDF9EA480068FA
:1035D000401CE949086008460068642800D903E0F7
:1035E000E34800780028EED000BF00BFC0E7F0B588
:1035F00085B004460D4616460C2700208DF80800BD
:103600008DF8090008208DF80A00072C06DC0F2D24
:1036100004DC47EA042747EA051701E005B0F0BDDE
:10362000009741F28830864201DD064603E0CF482C
:10363000864200DA064600208DF80B0005218DF841
:103640000C1055218DF80D108DF80E108DF80F10FF
:103650008DF810108DF811108DF81210C4490870F3
:103660006946C44802F0F2FD0020C34908600CE03E
:103670000120FFF778F9C0480068401CBE49086087
:1036800008460068642800D903E0B948007800289B
:10369000EED000BF00BFC1E7F0B585B005460E46CD
:1036A0001446022700208DF808008DF80900082034
:1036B0008DF80A00072D06DC0F2E04DC47EA0527EB
:1036C00047EA061701E005B0F0BD009741F28830E7
:1036D000844201DD044603E0A448844200DA044643
:1036E000200A8DF80B00E1B28DF80C1055218DF8F1
:1036F0000D108DF80E108DF80F108DF810108DF83C
:1037000011108DF8121000209949087069469948E7
:1037100002F09CFD0020984908600CE00120FFF7B2
:1037200022F995480068401C9349086008460068E3
:10373000642800D903E08E4800780028EED000BF4E
:1037400000BFC0E72DE9F04186B005460E4614469D
:103750001F464FF0030800208DF80C008DF80D0077
:1037600008208DF80E00072D06DC0F2E04DC48EA39
:10377000052848EA061802E006B0BDE8F081CDF859
:10378000048041F28830844201DD044603E077483A
:10379000844200DA0446002C04DA01DD204600E011
:1037A000604204B2200A8DF80F008DF81040390AEB
:1037B0008DF811108DF8127055218DF813108DF8B9
:1037C00014108DF815108DF8161000206849087037
:1037D00001A9684802F03AFD0020674908600CE042
:1037E0000120FFF7C0F864480068401C6249086087
:1037F00008460068642800D903E05D480078002886
:10380000EED000BF00BFB7E72DE9F04186B0054616
:103810000E4614461F464FF0040800208DF80C0099
:103820008DF80D0008208DF80E00072D06DC0F2EF8
:1038300004DC48EA052848EA061802E006B0BDE8BC
:10384000F081CDF8048041F28830844201DD0446E5
:1038500003E04648844200DA0446002C04DA01DD25
:10386000204600E0604204B2200A8DF80F008DF877
:103870001040390A8DF811108DF8127055218DF80D
:1038800013108DF814108DF815108DF816100020F7
:103890003749087001A9374802F0D8FC00203649A2
:1038A00008600CE00120FFF75EF833480068401C18
:1038B0003149086008460068642800D903E02C48B4
:1038C00000780028EED000BF00BFB7E72DE9F04137
:1038D00086B006460F4614461D464FF005080020E8
:1038E0008DF80C008DF80D0008208DF80E00072EC5
:1038F00006DC0F2F04DC48EA062848EA071802E035
:1039000006B0BDE8F081CDF8048041F288308442F1
:1039100001DD044603E01548844200DA0446002C29
:1039200004DA01DD204600E0604204B2200A8DF88E
:103930000F008DF8104055218DF811108DF81210E0
:10394000290E8DF81310290C8DF81410290A8DF802
:1039500015108DF8165000200549087001A905487A
:1039600002F074FC00200449086014E078ECFFFFCA
:103970002401002000640040200100200120FEF707
:10398000F2FFF9480068401CF749086008460068E3
:10399000642800D903E0F54800780028EED000BF85
:1039A00000BFADE72DE9F04186B005460E4614464E
:1039B0001F464FF0070800208DF80C008DF80D0011
:1039C00008208DF80E00072D06DC0F2E04DC48EAD7
:1039D000052848EA061802E006B0BDE8F081CDF8F7
:1039E0000480002C04DA01DD204600E0604204B2CD
:1039F000200A8DF80F008DF81040390A8DF811104B
:103A00008DF8127055218DF813108DF814108DF863
:103A100015108DF816100020D449087001A9D4485B
:103A200002F014FC0020D04908600CE00120FEF7F1
:103A30009AFFCD480068401CCB49086008460068E2
:103A4000642800D903E0C94800780028EED000BF00
:103A500000BFC1E72DE9F04186B006460F46144687
:103A60001D464FF0080800208DF80C008DF80D0061
:103A700008208DF80E00072E06DC0F2F04DC48EA24
:103A8000062848EA071802E006B0BDE8F081CDF844
:103A90000480002C04DA01DD204600E0604204B21C
:103AA000200A8DF80F008DF8104055218DF8111067
:103AB0008DF81210290E8DF81310290C8DF81410A2
:103AC000290A8DF815108DF816500020A7490870A6
:103AD00001A9A74802F0BAFB0020A34908600CE046
:103AE0000120FEF740FFA0480068401C9E49086086
:103AF00008460068642800D903E09C480078002844
:103B0000EED000BF00BFBFE72DE9F04385B0074608
:103B1000884614461D460C9E4FF0090900208DF87A
:103B200008008DF8090008208DF80A00072F07DC2F
:103B3000B8F10F0F04DC49EA072949EA081902E045
:103B400005B0BDE8F083CDF80090002C04DA01DD6B
:103B5000204600E0604204B2002D04DA01DD284670
:103B600000E0684205B2200A8DF80B00E1B28DF842
:103B70000C10290A8DF80D10E9B28DF80E10310ED7
:103B80008DF80F10310C8DF81010310A8DF81110CE
:103B9000F1B28DF81210002074490870694674481B
:103BA00002F054FB0020704908600CE00120FEF791
:103BB000DAFE6D480068401C6B49086008460068E2
:103BC000642800D903E0694800780028EED000BFDF
:103BD00000BFB5E72DE9F04186B004460D46174613
:103BE00098460A2600208DF80C008DF80D0008205C
:103BF0008DF80E00072C06DC0F2D04DC46EA0426A7
:103C000046EA051602E006B0BDE8F08101968DF89F
:103C10000F708DF8108055218DF811108DF812104D
:103C20008DF813108DF814108DF815108DF81610EE
:103C300000204E49087001A94D4802F007FB002002
:103C4000494908600CE00120FEF78DFE46480068F7
:103C5000401C4549086008460068642800D903E014
:103C6000424800780028EED000BF00BFCBE770B517
:103C700086B004460D460F2600208DF80C008DF806
:103C80000D0008208DF80E00072C06DC0F2D04DC3B
:103C900046EA042646EA051601E006B070BD019624
:103CA00055208DF80F0055218DF810108DF811104A
:103CB0008DF812108DF813108DF814108DF8151062
:103CC0008DF8161000202949087001A9284802F033
:103CD000BDFA0020244908600CE00120FEF743FEF5
:103CE00021480068401C2049086008460068642894
:103CF00000D903E01D4800780028EED000BF00BFC7
:103D0000CBE700B585B00221194802F017FD002865
:103D100079D00221164802F0ACFD6A460021144811
:103D200002F089FB40F201210098884205D114225B
:103D30006946104803F077FF38E140F2022100980D
:103D4000884205D1142269460B4803F06CFF2DE12F
:103D500040F203210098884212D114226946074894
:103D600003F061FF22E10000200100202401002077
:103D700000640040280200203C0200205002002085
:103D80009DF8080000283ED19DF808000028FAD1CF
:103D90009DF80A000828F6D100981B2834D19DF818
:103DA0000C009DF80B1040EA012000B28049088009
:103DB0009DF80E109DF80D0041EA002000B27D49EB
:103DC00008800846B0F9000040F6AE31884202DBB8
:103DD0000120794908709DF80F0001069DF8100038
:103DE00041EA00419DF8110041EA00209DF81210BF
:103DF000084372490860084600687149884202DB3E
:103E0000012070490870D0E000982B2830D19DF82F
:103E10000C009DF80B1040EA012000B26449488074
:103E20009DF80E109DF80D0041EA002000B2614996
:103E300048809DF80F0001069DF8100041EA0041FE
:103E40009DF8110041EA00209DF8121008435B49DB
:103E50004860084640685C498842D4DB574840685F
:103E6000594914318842CEDC0120564908709CE043
:103E700000983B2830D19DF80C009DF80B1040EACB
:103E8000012000B24A4988809DF80E109DF80D006F
:103E900041EA002000B2474988809DF80F000106E2
:103EA0009DF8100041EA00419DF8110041EA002010
:103EB0009DF81210084341498860084680684249CD
:103EC000884272DB3D4880683F49143188426CDC8F
:103ED00001203C49087068E000984B2830D19DF8DB
:103EE0000C009DF80B1040EA012000B23049C88058
:103EF0009DF80E109DF80D0041EA002000B22D49FA
:103F0000C8809DF80F0001069DF8100041EA0041AD
:103F10009DF8110041EA00209DF81210084327493E
:103F2000C8600846C068284988423EDB2348C0680C
:103F300025491431884238DC01202249087034E0D8
:103F400000981C280ED19DF80B00204908709DF8A0
:103F50000C001F4908701D480078012825D11D4913
:103F6000087022E000982C2808D19DF80B00174912
:103F700048709DF80C001649487016E000983C28DF
:103F800008D19DF80B00114988709DF80C0010496C
:103F900088700AE000984C2807D19DF80B000B4967
:103FA000C8709DF80C000A49C87000BF05B000BD7C
:103FB000260100202E01002046010020FC080020E0
:103FC000AC2A0200420100206A9C03003A01002052
:103FD0003E0100204501002010B52DED088B82B078
:103FE0000446192C7ED2DFE804F00D334B5259D62B
:103FF0007DFDFCFBFAF9F8F7F6F5F4F3F2F11E7D1E
:104000007DF06B00FCF7FCFF00F01DFDFE48C17861
:104010000820884330B1FC484078732802D114202E
:10402000FA490870DCE2FEF703FC10B10120F74901
:10403000087000F008FDF44801794020884330B151
:10404000F1484078732802D10220F0490870C7E295
:1040500000F0F9FC9FEDEE1AFFEE000A9FEDED0A6D
:10406000FDF7D8FD40B9E84801794020884330B1D8
:10407000E5484078732802D10220E4490870AFE295
:10408000FCF7FAFF10B10320E0490870A8E2FEF740
:10409000E7FC10B10420DD490870A1E29FEDDC1AB5
:1040A000DFEDDD0A9FEDDD0AFDF7B4FD38B1182024
:1040B000D6490870002211461046FDF7ADFC8FE28C
:1040C00000F0C1FCD0484078732851D1CE484079E7
:1040D00085280DDCCC484079832809DBCA488079E3
:1040E000852800E07BE203DCC748807983283FDA3B
:1040F000C5498979A1F1840005F06BFF41EC1B0BE8
:104100009FEDC70B53EC102B05F0CAFF41EC1A0BC7
:104110009FEDC50B53EC102B05F0D4FD41EC190BB2
:1041200005F0EAFC08EE100AB7494979C1F18400AC
:1041300005F04FFF41EC1B0B9FEDB90B53EC102B1F
:1041400005F0AEFF41EC1A0B9FEDB70B53EC102BB3
:1041500005F0B8FD41EC190B05F0CEFC08EE900A15
:104160009FEDAB1AF0EE480AB0EE680AFEF7A2F82F
:10417000A54801791020884338B1A34840787328B6
:1041800003D10520A149087004E000221146104621
:10419000FDF742FC24E2002211461046FDF73CFCEC
:1041A000FDF72CF808B3082098490870A04800686B
:1041B0004BF61C3108449F4B41F28832012100909C
:1041C0000020FEF7DDFB23200DE086E155E100E253
:1041D000FEE1FCE1EFE15EE156E13AE1B7E0A1E0AA
:1041E00081E003E06BE000F081FBF9E100F02BFCE3
:1041F0008548407873284FD18348407985280BDC67
:1042000081484079832807DB7F488079852803DC53
:104210007D48807983283FDA7B498979A1F1840040
:1042200005F0D7FE41EC1B0B9FED7D0B53EC102BE3
:1042300005F036FF41EC1A0B9FED7B0B53EC102B76
:1042400005F040FD41EC190B05F056FC08EE100A94
:104250006D494979C1F1840005F0BBFE41EC1B0BAF
:104260009FED6F0B53EC102B05F01AFF41EC1A0B6E
:104270009FED6D0B53EC102B05F024FD41EC190B59
:1042800005F03AFC08EE900A9FED611AF0EE480A3C
:10429000B0EE680AFEF70EF85B48017910208843FB
:1042A00038B159484078732803D10920574908701C
:1042B00004E0002211461046FDF7AEFB90E100F04D
:1042C000C2FB002211461046FDF7A6FB4E480179BD
:1042D0001020884330B14C484078732802D109201F
:1042E0004A4908707CE1002211461046FDF794FB14
:1042F000FDF709F8A8B10A20444908704C48006845
:1043000044F2682108444B4B41F28832012100906D
:104310000020FEF735FB3F2000F0C8FA3C2000F0FB
:10432000E5FA5DE1FEF74DFD10B10B20374908704D
:1043300000F089FB344801794020884330B132488D
:104340004078732802D113203049087048E100F00A
:104350007AFB2D48407873284FD12B484079852827
:104360000BDC29484079832807DB2748807985289A
:1043700003DC2548807983283FDA23498979A1F134
:10438000840005F026FE41EC1B0B9FED250B53EC42
:10439000102B05F085FE41EC1A0B9FED230B53EC1F
:1043A000102B05F08FFC41EC190B05F0A5FB08EE76
:1043B000100A15494979C1F1840005F00AFE41EC63
:1043C0001B0B9FED170B53EC102B05F069FE41EC16
:1043D0001A0B9FED150B53EC102B05F073FC41EC01
:1043E000190B05F089FB08EE900A9FED091AF0EE13
:1043F000480AB0EE680AFDF75DFF03480179102016
:10440000884300B3004817E00C0900200600002094
:104410000000000000002F45006092C400C0C0C52D
:104420009A9999999999B93F0000000000806040DD
:10443000B400002024FAFFFF4078732803D1132032
:104440008849087004E0002211461046FDF7E4FA9E
:10445000C6E0002211461046FDF7DEFA00F0F3FA3E
:10446000814801791020884330B17F484078732813
:1044700002D113207B490870B2E0FCF75EFE10B158
:104480000D2078490870ABE0FEF733FD10B10E2027
:1044900074490870A4E07548D0ED001A1FED242A75
:1044A00072EE611AB0EE611A7148D0ED001A9FEDFC
:1044B000712A72EE611AF0EE610A6F48D0ED001AAF
:1044C0009FED6E2A72EE611AB0EE610AFDF7A2FB53
:1044D00010B117206349087082E00022114610468F
:1044E000FDF79AFA00F0AFFA5F48407873284FD191
:1044F0005D48407985280BDC5B484079832807DBE1
:1045000059488079852803DC5748807983283FDA29
:1045100055498979A1F1840005F05BFD41EC1B0B45
:104520009FED570B53EC102B05F0BAFD41EC1A0B25
:104530001FED430B53EC102B05F0C4FB41EC190BA2
:1045400005F0DAFA08EE100A47494979C1F184000A
:1045500005F03FFD41EC1B0B9FED490B53EC102B7D
:1045600005F09EFD41EC190B1FED510B53EC102B88
:1045700005F0A8FB41EC1A0B05F0BEFA08EE900A14
:104580001FED5D1AF0EE480AB0EE680AFDF792FEE4
:10459000354801791020884338B133484078732872
:1045A00003D10F202F49087004E000221146104665
:1045B000FDF732FA14E0002211461046FDF72CFAFE
:1045C000FCF78FFF10B112202649087008E007E0C1
:1045D00006E0002211461046FDF71EFA00E000BF7B
:1045E00000BF02B0BDEC088B10BD7FB505460C4680
:1045F0000121022001F063F90295A0B2ADF8040098
:104600000020ADF80600ADF80C0001A91E4802F02C
:1046100030FA012211461C4802F0CCFE01211A4852
:1046200002F0B0FA1D208DF8000001208DF8010085
:1046300003208DF8020001208DF80300684600F089
:1046400066FD7FBD10B501210F4802F0CAFE0128AA
:1046500003D104480078FFF7BFFC01210A4802F0AB
:10466000D1FE10BD060000200C0900201000002023
:104670000C000020002091C408000020003400C677
:104680009A9999999999C93F0004004000B58DB055
:104690000121084601F0CAF80121080201F020F9C1
:1046A00020200B9003208DF8300000208DF833007F
:1046B0000BA92C4800F01CFE0121080201F065F94D
:1046C00000214FF4807001F060F9002007900A90FB
:1046D00009904FF48030089007A802F0A9FF00204D
:1046E00001908DF808008DF80900039005900120D5
:1046F0008DF8180001A91C4802F06BFF01211A482F
:1047000002F0ADFF0DB000BD10B50446022301223A
:104710002146154802F0E3FF134803F03CF800BFC0
:104720000221114803F058F90028F9D00E4803F08F
:104730006EF810BD2DE9F04107460C460025002615
:1047400008E03846FFF7E0FF0544052000F09AFB3B
:10475000701CC6B2A642F4DBB5FBF4F080B2BDE833
:10476000F0810000000002400020014030B58BB015
:1047700004460D460121080401F0B2F80121084663
:1047800001F054F80420099002208DF8280003203D
:104790008DF8290000208DF82A0001208DF82B00CB
:1047A00009A9624800F0A4FD032202215F4800F03D
:1047B0002AFEA8B2ADF818000020ADF81A00079440
:1047C000ADF8200006A95A4802F053F96020ADF870
:1047D00004000120ADF806000020ADF810000390A1
:1047E00001A9534802F0DAF90821514802F063FBAD
:1047F00001214F4802F0A8F901214D4802F0B3FD14
:1048000001214B4802F0BEF90BB030BD30B58BB082
:1048100004460D460121080401F062F80121084612
:1048200001F004F80820099002208DF828000320E8
:104830008DF8290000208DF82A0001208DF82B002A
:1048400009A93A4800F054FD03221146374800F008
:10485000DAFDA8B2ADF818000020ADF81A000794F0
:10486000ADF8200006A9324802F003F96020ADF847
:1048700004000120ADF806000020ADF81000039000
:1048800001A92B4802F0C3F90821294802F01CFBBA
:104890000121274802F058F90121254802F063FD63
:1048A0000121234802F06EF90BB030BD70B504460B
:1048B0004FF4FA606043B42190FBF1F000F5FA7018
:1048C00085B24FF4A06000F01DFCA82000F078FA3B
:1048D0004FF4E13000F071FBA72144F61F60FFF7B1
:1048E00045FF2946124802F0B2FA70BD70B5044681
:1048F0004FF4FA606043B42190FBF1F000F5FA70D8
:1049000085B24FF4A06000F0FDFBA82000F058FA3B
:104910004FF4E13000F051FBA72144F61F60FFF790
:1049200075FF2946024802F094FA70BD000002406B
:10493000004001401CB50121022000F077FF012159
:10494000082000F073FF4FF40060009000208DF805
:10495000040003208DF8050001208DF8070069464A
:10496000FE4800F0C5FC4FF4E040009001208DF8B7
:10497000040000208DF8060003208DF805000120BA
:104980008DF807006946F64800F0B2FC0120F549B1
:104990000860F549C1F8B002F249091F08601CBD62
:1049A00038B50446012000900020F04948700120ED
:1049B00000902AE0BDF80000204020B10120E94924
:1049C0000839086003E00020E64908390860002043
:1049D000E4490860052000F00DFA0120E249C1F821
:1049E000B802052000F006FAE148006830B1DF485F
:1049F0004078BDF800100843DC494870BDF800005D
:104A00004FF6FF7101EA40000090BDF80000FF285A
:104A1000D0DD38BD10B50020D249091F0860D54946
:104A20000878FFF7BDFFD3494878FFF7B9FF0120A9
:104A3000CD49C1F8B402CD484078732801D1002097
:104A400010BD0120FCE71CB5002001900120009062
:104A5000322000F0CFF90020C249091F08601E2053
:104A600000F0C8F9C3490878FFF79AFF142000F056
:104A7000C1F9C0494878FFF793FF142000F0BAF954
:104A8000022001903FE00120009030E00120B54974
:104A90000860052000F0AEF90020B349C1F8B80263
:104AA000052000F0A7F90120AF49C1F8B802B248CB
:104AB000D0F82C0258B1AD489DF80410405CBDF808
:104AC00000100843A9499DF80420885408E0A7492C
:104AD0009DF8042088180178BDF8002091430170EA
:104AE000BDF800004FF6FF7101EA40000090BDF8EC
:104AF0000000FF28CADD102000F07CF99DF80400BA
:104B0000401CC0B201909DF804000928BBDB0120C5
:104B10009449091F08601CBD002004E00021934A4D
:104B20001154411CC8B20928F8DB704710B5FFF7D3
:104B3000F3FFFFF788FF8D48C0788C49097940EA78
:104B400001208E49088000240FE08D4810F81400E1
:104B5000401E012101FA00F088490988084010B977
:104B6000601CC0B210BD601CC4B2102CEDDB002074
:104B7000F8E770B500240025FFF7D8FF044624B1FC
:104B800080480078A04200D025467E480470284620
:104B900070BD01467548405C704770B505460C46CF
:104BA00000207049091F0860102000F023F901203F
:104BB000FFF7F6FE4220FFF7F3FE0020FFF7F0FEBE
:104BC0002846FFF7EDFE2046FFF7EAFE0020FFF73C
:104BD000E7FE0020FFF7E4FE0020FFF7E1FE0020E3
:104BE000FFF7DEFE01206049C1F8B402102000F09A
:104BF00001F970BD10B500205A49091F0860102046
:104C000000F0F8F80120FFF7CBFE4220FFF7C8FEC6
:104C10000020FFF7C5FE0020FFF7C2FE0020FFF7CF
:104C2000BFFE01205049C1F8B402102000F0E2F8A4
:104C300010BD10B500204B49091F0860102000F07E
:104C4000D9F80120FFF7ACFE4320FFF7A9FE0020B2
:104C5000FFF7A6FE0120FFF7A3FE0020FFF7A0FE4E
:104C60000020FFF79DFE0020FFF79AFE0020FFF7CF
:104C700097FE0020FFF794FE01203B49C1F8B402E3
:104C8000102000F0B7F810BD10B500203549091FFD
:104C900008600120FFF784FE4420FFF781FE00201A
:104CA000FFF77EFE0120FFF77BFEEE20FFF778FE88
:104CB0000020FFF775FE0020FFF772FE0020FFF7CF
:104CC0006FFE0020FFF76CFE01202749C1F8B402F7
:104CD000102000F08FF810BD10B500202149091FE9
:104CE0000860102000F086F80120FFF759FE4D20E3
:104CF000FFF756FE0020FFF753FE0020FFF750FE9F
:104D00000120FFF74DFE01201749C1F8B402102021
:104D100000F070F810BD10B500201249091F08609E
:104D2000102000F067F80120FFF73AFE4320FFF75C
:104D300037FE0020FFF734FE0020FFF731FE5A2037
:104D4000FFF72EFE5A20FFF72BFE5A20FFF728FE12
:104D50005A20FFF725FE5A2016E00000000C024002
:104D600000040240B8824042008040420C0900200A
:104D70002C824142DA01002000804142D80100200B
:104D8000E801002008020020FFF70AFE01200B497D
:104D9000C1F8B402102000F02DF810BD10B5FFF7D7
:104DA00029FFFFF727FFFFF725FFFFF742FFFFF778
:104DB0006BFFFFF791FFFFF7AEFF10BD0080404291
:104DC00010B504466FF0040000F0EEF9E11704EBB3
:104DD0005171C1F3C701324A11701046007800EBDF
:104DE0004001C1EBC0104FF6FF7101EAC0002D4930
:104DF000088010BD01462A4A12784A434FF0E0234A
:104E00005A6100229A611A46126942F001021A613F
:104E100000BF4FF0E022106900F001021AB100F467
:104E20008032002AF5D04FF0E022126922F0010210
:104E30004FF0E0231A6100229A6170470146194A37
:104E400012884A434FF0E0235A6100229A611A46C1
:104E5000126942F001021A6100BF4FF0E0221069AE
:104E600000F001021AB100F48032002AF5D04FF0B0
:104E7000E022126922F001024FF0E0231A610022C1
:104E80009A61704710B5002107E04AF2104200BF56
:104E90001300A2F10102FBD1491C8142F5D310BDE0
:104EA0000A0200200C02002030B502460B464FF6E5
:104EB000FF70002112E0555C684000240AE000F019
:104EC000010525B14AF2010585EA600000E04010C5
:104ED000651CECB2082CF2DB4D1CE9B29942EADB0E
:104EE00030BD30B50025002413E0284800EB8400D5
:104EF00090ED000ABDEEC00A10EE100A244941F8F8
:104F00002400084650F82400224941F82400601C7F
:104F1000C4B2042CE9DB002411E01E4810F8240080
:104F20001D4901F814001B4830F82400C0F3072085
:104F3000012101EB4401184A5054601CC4B2042CF6
:104F4000EBDB08211448FFF7AFFF05462846E917B9
:104F500005EB11610912A5EB01210F4A1172E91746
:104F600005EB1161090A517200240CE000BF0B48E7
:104F7000008800F040000028F9D00748005D07498C
:104F80008880601CC4B20A2CF0DB30BD18090020F8
:104F900044090020340900202809002000100140A5
:104FA00000BF704700BF434A128802F04002002A47
:104FB000F9D0C2B23F4B9A80704710B588B0044612
:104FC0000121084600F032FC0121102000F088FC8D
:104FD00007220921384800F016FA07220A2136482C
:104FE00000F011FA4FF4C060069002208DF81C000A
:104FF0008DF81D0000208DF81E0001208DF81F0087
:1050000006A92D4800F074F902940020ADF80C00B8
:10501000ADF80E00ADF81000ADF814000C20ADF89E
:10502000120002A9234800F0BCFD0121214800F034
:1050300040FE012240F225511E4800F0F0FE2520DE
:105040008DF8040003208DF805008DF8060001207E
:105050008DF8070001A800F05AF808B010BD2DE93E
:10506000F04F85B0002500260027A846A946AA468D
:10507000AB460020049003900290104801904FF43A
:105080007A70009040F225510A4800F003FF68B1A1
:10509000084800F03DFEC4B2AA2C07D108480068B9
:1050A00008B9012000E000200549086005B0BDE80E
:1050B000F08F0000001001400000024040420F004D
:1050C000180000200948804709480047FEE7FEE72E
:1050D000FEE7FEE7FEE7FEE7FEE7FEE7FEE7FEE7A8
:1050E00004480549054A064B70470000750700084B
:1050F00089010008B8090020B80F0020B80B002073
:10510000B80B002032490143324A1160704770B534
:10511000002100230F22C4781CB32E4C246804F411
:10512000E064C4F5E064C4F30721C1F10404E3B210
:105130000A4144789C40E1B28478144021430C0732
:10514000210E254C05786155047804F01F050124D3
:10515000AC4005786D11AD0005F1E025C5F80041C2
:1051600009E0047804F01F050124AC401B4D0678CB
:10517000761145F8264070BD194A0A400243154B86
:105180001B1F1A60704739B1124A121D1268024380
:10519000104B1B1D1A6006E00E4A121D1268824356
:1051A0000C4B1B1D1A607047042808D14FF0E021FA
:1051B000096941F004014FF0E022116107E04FF06E
:1051C000E021096921F004014FF0E02211617047EC
:1051D0000000FA050CED00E000E400E080E100E0F2
:1051E00080FFFF1F10B504469848844208D1012172
:1051F000084600F086FB0021012000F082FB76E0EB
:105200009348844208D10121022000F07AFB00215A
:10521000022000F076FB6AE08E48844208D101212A
:10522000042000F06EFB0021042000F06AFB5EE029
:105230008948844208D10121082000F062FB002146
:10524000082000F05EFB52E08448844208D101212E
:10525000102000F056FB0021102000F052FB46E029
:105260007F48844208D10121202000F04AFB002120
:10527000202000F046FB3AE07A48844208D1012120
:10528000402000F03EFB0021402000F03AFB2EE0E1
:105290007548844208D10121802000F032FB0021B2
:1052A000802000F02EFB22E07048844208D10121CA
:1052B000801500F026FB0021A01500F022FB16E06F
:1052C0006B48844208D10121401500F01AFB0021EF
:1052D000601500F016FB0AE06648844207D1012100
:1052E000001500F00EFB0021201500F00AFB10BD98
:1052F000F0B50A4600210023002400BF3DE001254F
:1053000005FA01F3156805EA03049C4234D10568E7
:105310004F000326BE40B543056015794E00B540E9
:105320000668354305601579012D02D01579022DE7
:1053300016D185684F000326BE40B5438560557978
:105340004E00B540866835438560456801268E402D
:10535000B5434560456896798E40B6B235434560A1
:10536000C5684F000326BE40B543C560D5794E00E1
:10537000B540C6683543C560491C1029BFD3F0BD90
:105380004FF6FF7101600021017141718171C1719E
:10539000704708B54FF480320092009A0A43009299
:1053A000009AC261C161009AC261C2690092C26979
:1053B000009208BD0246002013690B400BB101208A
:1053C00000E0002070470146086980B2704702463D
:1053D000002053690B400BB1012000E00020704712
:1053E0000146486980B27047018370474183704726
:1053F0000AB1018300E0418370474161704742690F
:105400004A4042617047F0B5002300244D07ED0E7D
:1054100002FA05F3CE1000F1200555F826504E078C
:10542000F70E0F26BE40B543CF1000F1200646F818
:105430002750CE1000F1200555F8265045EA030408
:10544000CE1000F1200545F82640F0BD00000240D6
:105450000004024000080240000C0240001002401C
:105460000014024000180240001C024000200240CC
:105470000024024000280240F948006840F0010082
:10548000F74908600020F64908310860F4480068D0
:10549000F4490840F2490860F348091D0860F348E0
:1054A000EF4984310860F0481038091D0860EC4865
:1054B000006820F48020EA4908600020E8490C31A7
:1054C0000860E7498C31086070470021E44A921C6B
:1054D000117011460870704710B501460022002374
:1054E00000204A11012A02D1DD4C236808E0022A7B
:1054F00003D1DB4C7034236802E0D94C7434236848
:1055000001F01F02012494401C400CB1012000E076
:10551000002010BD38B5002000900024002500BFF9
:105520003120FFF7D9FF05460098401C00900098F5
:10553000B0F5A04F01D0002DF2D03120FFF7CCFF05
:1055400008B1012400E00024204638BD01460020B7
:10555000C34A106820F0F80040EAC10010607047AC
:10556000C349086070470021BD4A70321170117044
:10557000012802D004280AD104E00121B84A70327F
:10558000117005E00521B64A7032117000E000BFCD
:1055900000BF7047B7490860704770B5049C41EA86
:1055A00082150126C6EB530645EA0645054345EA42
:1055B0000465AB4E361D356070BDAD490866704759
:1055C000820142EA0172A64B84331A607047A849EF
:1055D0008866704710B5830143EA016343EA0273AA
:1055E0009F4C8834236010BDA14908677047A049CB
:1055F000C864704702460020994B0833186820F0B1
:10560000EC6042EA01031843954B08331860704779
:1056100002460020924B0833186820F0784042EA96
:10562000010318438E4B0833186070470146002071
:105630008B4A0832106820F003000843106070475E
:1056400087480830006800F00C00704701460020D1
:10565000834A0832106820F0F00008431060704759
:10566000014600207E4A0832106820F4E0500843CA
:105670001060704701460020794A0832106820F413
:10568000604040EAC10010607047F0B50021002280
:105690000024022500260223714F08373F6807F0D7
:1056A0000C0121B1042905D0082937D105E0724F3A
:1056B000076036E0714F076033E0694F3F1D3F6878
:1056C000C7F38056664F3F1D3F6807F03F036EB13A
:1056D0006A4FB7FBF3F7DFF888C10CF1040CDCF874
:1056E00000C0CCF3881C07FB0CF40CE0624FB7FB46
:1056F000F3F7DFF86CC10CF1040CDCF800C0CCF35C
:10570000881C07FB0CF4564F3F1D3F68C7F3014749
:105710007F1C7D00B4FBF5F7076002E0564F076081
:1057200000BF00BF4E4F08373F6807F0F00109097E
:10573000534F7A5C0768D7404760494F08373F6846
:1057400007F4E051890A4E4F7A5C4768D74087607A
:10575000434F08373F6807F46041490B484F7A5C74
:105760004768D740C760F0BD002100F44072B2F531
:10577000407F0AD13A4A0832116821F4F811414AAF
:1057800002401143364A08321160354A70321268BD
:10579000C0F30B031A43324B70331A60704735491C
:1057A00044390860704733494039086070473649CA
:1057B0000860704701460020294A8C32106820F0AA
:1057C0001F004A1E1043264A8C3210607047014663
:1057D0000020234A8C32106820F4F8504A1E40EA18
:1057E00002201F4A8C3210607047014600201C4A7C
:1057F0008C32106820F44010084310607047014656
:105800000020174A8C32106820F4400008431060D2
:10581000704701460020124A8C32106820F4403054
:1058200008431060704719490860704739B10C4A45
:105830003032126802430A4B30331A6006E0084ADD
:10584000303212688243064B30331A607047F9B128
:10585000034A343212680243014B34331A601CE0AD
:1058600000380240FFFFF6EA10300024003000202C
:1058700000004742800E47420024F40000127A00E4
:1058800016020020FFFCFF0F5C014742E011474277
:105890008F4A126882438E4B1A60704739B18C4A26
:1058A000121D126802438A4B1B1D1A6006E0884ACB
:1058B000121D12688243864B1B1D1A60704739B156
:1058C000834A0C3212680243814B0C331A6006E0A3
:1058D0007F4A0C32126882437D4B0C331A6070474A
:1058E00039B17B4A103212680243794B10331A6087
:1058F00006E0774A103212688243754B10331A6003
:10590000704739B1724A243A12680243704B243B03
:105910001A6006E06E4A243A126882436C4B243BBC
:105920001A60704739B16A4A203A12680243684BDC
:10593000203B1A6006E0664A203A12688243644BB4
:10594000203B1A60704739B1614A1C3A1268024321
:105950005F4B1C3B1A6006E05D4A1C3A12688243AA
:105960005B4B1C3B1A60704739B1594A143A1268B4
:105970000243574B143B1A6006E0554A143A12682A
:105980008243534B143B1A60704739B1504A103A66
:10599000126802434E4B103B1A6006E04C4A103A24
:1059A000126882434A4B103B1A60704739B1484A2B
:1059B0001C3212680243464B1C331A6006E0444A0C
:1059C0001C3212688243424B1C331A60704739B153
:1059D0003F4A2032126802433D4B20331A6006E0F2
:1059E0003B4A203212688243394B20331A60704799
:1059F00039B1374A243212680243354B24331A60D6
:105A000006E0334A243212688243314B24331A6051
:105A1000704739B12E4A2C32126802432C4B2C337A
:105A20001A6006E02A4A2C3212688243284B2C3333
:105A30001A60704739B1264A303212680243244B4B
:105A400030331A6006E0224A303212688243204B1B
:105A500030331A607047012808D11D493C3109686C
:105A600041F008011A4A3C32116007E018493C3104
:105A7000096821F00801164A3C321160704739B1BB
:105A8000134A273A12780243114B273B1A7006E05B
:105A90000F4A273A127882430D4B273B1A70704702
:105AA0000B484030006840F0807009494031086080
:105AB000704701460020064A283A12680A400AB197
:105AC000012000E000207047014926390870704726
:105AD0003438024010B50446FA48844208D1012106
